{
  "contractName": "FileSignature",
  "abi": [
    {
      "constant": false,
      "inputs": [
        {
          "internalType": "string",
          "name": "date",
          "type": "string"
        },
        {
          "internalType": "string",
          "name": "IPFSHash",
          "type": "string"
        },
        {
          "internalType": "string",
          "name": "transactionHash",
          "type": "string"
        }
      ],
      "name": "upload",
      "outputs": [],
      "payable": false,
      "stateMutability": "nonpayable",
      "type": "function"
    }
  ],
  "bytecode": "0x608060405234801561001057600080fd5b506103fd806100206000396000f3fe608060405234801561001057600080fd5b506004361061002b5760003560e01c80638dee819214610030575b600080fd5b6102176004803603606081101561004657600080fd5b810190808035906020019064010000000081111561006357600080fd5b82018360208201111561007557600080fd5b8035906020019184600183028401116401000000008311171561009757600080fd5b91908080601f016020809104026020016040519081016040528093929190818152602001838380828437600081840152601f19601f820116905080830192505050505050509192919290803590602001906401000000008111156100fa57600080fd5b82018360208201111561010c57600080fd5b8035906020019184600183028401116401000000008311171561012e57600080fd5b91908080601f016020809104026020016040519081016040528093929190818152602001838380828437600081840152601f19601f8201169050808301925050505050505091929192908035906020019064010000000081111561019157600080fd5b8201836020820111156101a357600080fd5b803590602001918460018302840111640100000000831117156101c557600080fd5b91908080601f016020809104026020016040519081016040528093929190818152602001838380828437600081840152601f19601f820116905080830192505050505050509192919290505050610219565b005b600060405180608001604052803373ffffffffffffffffffffffffffffffffffffffff168152602001858152602001848152602001838152509080600181540180825580915050906001820390600052602060002090600402016000909192909190915060008201518160000160006101000a81548173ffffffffffffffffffffffffffffffffffffffff021916908373ffffffffffffffffffffffffffffffffffffffff16021790555060208201518160010190805190602001906102e0929190610323565b5060408201518160020190805190602001906102fd929190610323565b50606082015181600301908051906020019061031a929190610323565b50505050505050565b828054600181600116156101000203166002900490600052602060002090601f016020900481019282601f1061036457805160ff1916838001178555610392565b82800160010185558215610392579182015b82811115610391578251825591602001919060010190610376565b5b50905061039f91906103a3565b5090565b6103c591905b808211156103c15760008160009055506001016103a9565b5090565b9056fea265627a7a723158201ece295fe8f2bb1e054bf3a5bb15eb7b245339b7a8e8ff9ff475e6723515cb9264736f6c634300050c0032",
  "source": "pragma solidity >=0.4.21 <0.7.0;\r\n//pragma experimental ABIEncoderV2;\r\n\r\ncontract FileSignature {\r\n\r\n  struct File{\r\n    //Información de archivo\r\n    address owner;    //Propietario\r\n    string date;      //Fecha de subida\r\n    string IPFSHash;        //Hash del archivo en IPFS\r\n    string transactionHash; //Hash de la transacción que lo subió a IPFS\r\n  }\r\n\r\n  File[] files;\r\n\r\n  // Devuelve la información del archivo que se va a descargar\r\n  function upload(string memory date, string memory IPFSHash, string memory transactionHash) public\r\n  {\r\n    files.push(File(msg.sender, date, IPFSHash, transactionHash));\r\n  }\r\n/*\r\n  //Funciones que necesitan una funcionalidad experimental (ABIEncoderV2),\r\n  //así que hemos decidido no usarlas. Más información en la documentación del proyecto\r\n\r\n  // Devuelve la información del archivo que se va a descargar\r\n  function download(string memory fileHash) public view returns\r\n    (address owner, string memory date, string memory IPFSHash, string memory transactionHash)\r\n  {\r\n    File memory file = File(msg.sender, '', '', '');\r\n\r\n    for (uint i = 0; i < files.length; i++) {\r\n      if(keccak256(abi.encodePacked((files[i].IPFSHash))) == keccak256(abi.encodePacked((fileHash)))) file = files[i];\r\n    }\r\n\r\n    return(file.owner, file.date, file.IPFSHash, file.transactionHash);\r\n  }\r\n\r\n  // Devuelve la información del archivo que se va a descargar\r\n  function getFiles() public view returns\r\n    (address[] memory, string[] memory, string[] memory, string[] memory)\r\n  {\r\n    address[] memory owners;\r\n    string[] memory dates;\r\n    string[] memory IPFSHashes;\r\n    string[] memory transactionHashes;\r\n\r\n    for (uint i = 0; i < files.length; i++) {\r\n      //owners.push(files[i].owner);\r\n      //dates.push(files[i].date);\r\n      //IPFSHashes.push(files[i].IPFSHash);\r\n      //transactionHashes.push(files[i].transactionHash);\r\n      owners[i] = files[i].owner;\r\n      dates[i] = files[i].date;\r\n      IPFSHashes[i] = files[i].IPFSHash;\r\n      transactionHashes[i] = files[i].transactionHash;\r\n    }\r\n\r\n    return(owners, dates, IPFSHashes, transactionHashes);\r\n  }\r\n*/\r\n}",
  "sourcePath": "C:/truffle/ssi/reactssi/contracts/FileSignature.sol",
  "compiler": {
    "name": "solc",
    "version": "0.5.12+commit.7709ece9.Emscripten.clang"
  },
  "schemaVersion": "3.0.19",
  "updatedAt": "2020-01-13T14:13:37.874Z",
  "networkType": "ethereum",
  "devdoc": {
    "methods": {}
  },
  "userdoc": {
    "methods": {}
  }
}