{
  "contractName": "FileSignature",
  "abi": [
    {
      "constant": false,
      "inputs": [
        {
          "internalType": "string",
          "name": "date",
          "type": "string"
        },
        {
          "internalType": "string",
          "name": "IPFSHash",
          "type": "string"
        },
        {
          "internalType": "string",
          "name": "transactionHash",
          "type": "string"
        }
      ],
      "name": "upload",
      "outputs": [],
      "payable": false,
      "stateMutability": "nonpayable",
      "type": "function"
    },
    {
      "constant": true,
      "inputs": [
        {
          "internalType": "string",
          "name": "fileHash",
          "type": "string"
        }
      ],
      "name": "download",
      "outputs": [
        {
          "internalType": "address",
          "name": "owner",
          "type": "address"
        },
        {
          "internalType": "string",
          "name": "date",
          "type": "string"
        },
        {
          "internalType": "string",
          "name": "IPFSHash",
          "type": "string"
        },
        {
          "internalType": "string",
          "name": "transactionHash",
          "type": "string"
        }
      ],
      "payable": false,
      "stateMutability": "view",
      "type": "function"
    }
  ],
  "bytecode": "0x608060405234801561001057600080fd5b50610abc806100206000396000f3fe608060405234801561001057600080fd5b50600436106100365760003560e01c806356803d941461003b5780638dee81921461027a575b600080fd5b6100f46004803603602081101561005157600080fd5b810190808035906020019064010000000081111561006e57600080fd5b82018360208201111561008057600080fd5b803590602001918460018302840111640100000000831117156100a257600080fd5b91908080601f016020809104026020016040519081016040528093929190818152602001838380828437600081840152601f19601f820116905080830192505050505050509192919290505050610463565b604051808573ffffffffffffffffffffffffffffffffffffffff1673ffffffffffffffffffffffffffffffffffffffff168152602001806020018060200180602001848103845287818151815260200191508051906020019080838360005b8381101561016e578082015181840152602081019050610153565b50505050905090810190601f16801561019b5780820380516001836020036101000a031916815260200191505b50848103835286818151815260200191508051906020019080838360005b838110156101d45780820151818401526020810190506101b9565b50505050905090810190601f1680156102015780820380516001836020036101000a031916815260200191505b50848103825285818151815260200191508051906020019080838360005b8381101561023a57808201518184015260208101905061021f565b50505050905090810190601f1680156102675780820380516001836020036101000a031916815260200191505b5097505050505050505060405180910390f35b6104616004803603606081101561029057600080fd5b81019080803590602001906401000000008111156102ad57600080fd5b8201836020820111156102bf57600080fd5b803590602001918460018302840111640100000000831117156102e157600080fd5b91908080601f016020809104026020016040519081016040528093929190818152602001838380828437600081840152601f19601f8201169050808301925050505050505091929192908035906020019064010000000081111561034457600080fd5b82018360208201111561035657600080fd5b8035906020019184600183028401116401000000008311171561037857600080fd5b91908080601f016020809104026020016040519081016040528093929190818152602001838380828437600081840152601f19601f820116905080830192505050505050509192919290803590602001906401000000008111156103db57600080fd5b8201836020820111156103ed57600080fd5b8035906020019184600183028401116401000000008311171561040f57600080fd5b91908080601f016020809104026020016040519081016040528093929190818152602001838380828437600081840152601f19601f82011690508083019250505050505050919291929050505061089a565b005b600060608060606104726109a4565b60405180608001604052803373ffffffffffffffffffffffffffffffffffffffff16815260200160405180602001604052806000815250815260200160405180602001604052806000815250815260200160405180602001604052806000815250815250905060008090505b60008054905081101561086c57866040516020018082805190602001908083835b6020831061052257805182526020820191506020810190506020830392506104ff565b6001836020036101000a038019825116818451168082178552505050505050905001915050604051602081830303815290604052805190602001206000828154811061056a57fe5b906000526020600020906004020160020160405160200180828054600181600116156101000203166002900480156105d95780601f106105b75761010080835404028352918201916105d9565b820191906000526020600020905b8154815290600101906020018083116105c5575b505091505060405160208183030381529060405280519060200120141561085f576000818154811061060757fe5b90600052602060002090600402016040518060800160405290816000820160009054906101000a900473ffffffffffffffffffffffffffffffffffffffff1673ffffffffffffffffffffffffffffffffffffffff1673ffffffffffffffffffffffffffffffffffffffff168152602001600182018054600181600116156101000203166002900480601f01602080910402602001604051908101604052809291908181526020018280546001816001161561010002031660029004801561070f5780601f106106e45761010080835404028352916020019161070f565b820191906000526020600020905b8154815290600101906020018083116106f257829003601f168201915b50505050508152602001600282018054600181600116156101000203166002900480601f0160208091040260200160405190810160405280929190818152602001828054600181600116156101000203166002900480156107b15780601f10610786576101008083540402835291602001916107b1565b820191906000526020600020905b81548152906001019060200180831161079457829003601f168201915b50505050508152602001600382018054600181600116156101000203166002900480601f0160208091040260200160405190810160405280929190818152602001828054600181600116156101000203166002900480156108535780601f1061082857610100808354040283529160200191610853565b820191906000526020600020905b81548152906001019060200180831161083657829003601f168201915b50505050508152505091505b80806001019150506104de565b5080600001518160200151826040015183606001518292508191508090509450945094509450509193509193565b600060405180608001604052803373ffffffffffffffffffffffffffffffffffffffff168152602001858152602001848152602001838152509080600181540180825580915050906001820390600052602060002090600402016000909192909190915060008201518160000160006101000a81548173ffffffffffffffffffffffffffffffffffffffff021916908373ffffffffffffffffffffffffffffffffffffffff16021790555060208201518160010190805190602001906109619291906109e2565b50604082015181600201908051906020019061097e9291906109e2565b50606082015181600301908051906020019061099b9291906109e2565b50505050505050565b6040518060800160405280600073ffffffffffffffffffffffffffffffffffffffff1681526020016060815260200160608152602001606081525090565b828054600181600116156101000203166002900490600052602060002090601f016020900481019282601f10610a2357805160ff1916838001178555610a51565b82800160010185558215610a51579182015b82811115610a50578251825591602001919060010190610a35565b5b509050610a5e9190610a62565b5090565b610a8491905b80821115610a80576000816000905550600101610a68565b5090565b9056fea265627a7a7231582017ccb14437e5faa8723556450e314fd0ac19c440e7ca6e8ffca86e54794bac6264736f6c634300050c0032",
  "source": "pragma solidity >=0.4.21 <0.7.0;\n//pragma experimental ABIEncoderV2;   //Esperimental es necesario para \"File memory\" (?)\n\n/*\nARRAYS\nlength\npush() devuelve el elemento del final\npush(x) inserta x al final\npop() elimina el elemento del final\n*/\n/*\nmemory -> indica variable temporal\nstorage -> indica variable persistente\n*/\n/*\nComparar dos strings a y b\nkeccak256(abi.encodePacked((a))) == keccak256(abi.encodePacked((b)))\n*/\n\ncontract FileSignature {\n\n  struct File{\n    //Información de archivo\n    address owner;    //Propietario\n    string date;      //Fecha de subida\n    string IPFSHash;        //Hash del archivo en IPFS\n    string transactionHash; //Hash de la transacción que lo subió a IPFS\n  }\n\n  //string[] hashes;\n  File[] files;\n/*\n  function set(string memory newHash) public\n  {\n    File memory newFile = File('', '', 0, 0, msg.sender, 0, newHash, '');\n\n    files.push(newFile);\n  }\n\n  function get(string memory oldHash) public view returns (string memory name, string memory ext, uint size, uint downloads,\n                                          address owner,  uint date, string memory IPFSHash, string memory transactionHash)\n  {\n    File memory file = File('', '', 0, 0, msg.sender, 0, '', '');\n\n    for (uint i = 0; i < files.length; i++) {\n      if(keccak256(abi.encodePacked((files[i].IPFSHash))) == keccak256(abi.encodePacked((oldHash)))) file = files[i];\n    }\n\n    return(file.name, file.ext, file.size, file.downloads, file.owner, file.date, file.IPFSHash, file.transactionHash);\n  }\n*/\n  // Devuelve la información del archivo que se va a descargar\n  function upload(string memory date, string memory IPFSHash, string memory transactionHash) public\n  {\n    files.push(File(msg.sender, date, IPFSHash, transactionHash));\n  }\n\n  // Devuelve la información del archivo que se va a descargar\n  function download(string memory fileHash) public view returns\n    (address owner, string memory date, string memory IPFSHash, string memory transactionHash)\n  {\n    File memory file = File(msg.sender, '', '', '');\n\n    for (uint i = 0; i < files.length; i++) {\n      if(keccak256(abi.encodePacked((files[i].IPFSHash))) == keccak256(abi.encodePacked((fileHash)))) file = files[i];\n    }\n\n    return(file.owner, file.date, file.IPFSHash, file.transactionHash);\n  }\n}\n\n/*\ncontract SimpleStorage {\n  string storedData;\n\n  function set(string memory x) public {\n    storedData = x;\n  }\n\n  function get() public view returns (string memory) {\n    return storedData;\n  }\n}\n*/",
  "sourcePath": "C:/truffle/ssi/reactssi/contracts/FileSignature.sol",
  "compiler": {
    "name": "solc",
    "version": "0.5.12+commit.7709ece9.Emscripten.clang"
  },
  "schemaVersion": "3.0.19",
  "updatedAt": "2020-01-11T20:47:23.898Z",
  "networkType": "ethereum",
  "devdoc": {
    "methods": {}
  },
  "userdoc": {
    "methods": {}
  }
}