{
  "contractName": "Adoption",
  "abi": [
    {
      "constant": true,
      "inputs": [
        {
          "internalType": "uint256",
          "name": "",
          "type": "uint256"
        }
      ],
      "name": "adopters",
      "outputs": [
        {
          "internalType": "address",
          "name": "",
          "type": "address"
        }
      ],
      "payable": false,
      "stateMutability": "view",
      "type": "function"
    },
    {
      "constant": true,
      "inputs": [
        {
          "internalType": "uint256",
          "name": "",
          "type": "uint256"
        }
      ],
      "name": "files",
      "outputs": [
        {
          "internalType": "bytes32",
          "name": "name",
          "type": "bytes32"
        },
        {
          "internalType": "bytes3",
          "name": "ext",
          "type": "bytes3"
        },
        {
          "internalType": "uint256",
          "name": "size",
          "type": "uint256"
        },
        {
          "internalType": "uint256",
          "name": "downloads",
          "type": "uint256"
        },
        {
          "internalType": "address",
          "name": "uploader",
          "type": "address"
        },
        {
          "internalType": "bytes32",
          "name": "date",
          "type": "bytes32"
        }
      ],
      "payable": false,
      "stateMutability": "view",
      "type": "function"
    },
    {
      "constant": false,
      "inputs": [
        {
          "internalType": "uint256",
          "name": "fileId",
          "type": "uint256"
        }
      ],
      "name": "download",
      "outputs": [
        {
          "components": [
            {
              "internalType": "bytes32",
              "name": "name",
              "type": "bytes32"
            },
            {
              "internalType": "bytes3",
              "name": "ext",
              "type": "bytes3"
            },
            {
              "internalType": "uint256",
              "name": "size",
              "type": "uint256"
            },
            {
              "internalType": "uint256",
              "name": "downloads",
              "type": "uint256"
            },
            {
              "internalType": "address",
              "name": "uploader",
              "type": "address"
            },
            {
              "internalType": "bytes32",
              "name": "date",
              "type": "bytes32"
            }
          ],
          "internalType": "struct Adoption.File",
          "name": "",
          "type": "tuple"
        }
      ],
      "payable": false,
      "stateMutability": "nonpayable",
      "type": "function"
    },
    {
      "constant": false,
      "inputs": [
        {
          "internalType": "uint256",
          "name": "fileId",
          "type": "uint256"
        }
      ],
      "name": "getFiles",
      "outputs": [
        {
          "components": [
            {
              "internalType": "bytes32",
              "name": "name",
              "type": "bytes32"
            },
            {
              "internalType": "bytes3",
              "name": "ext",
              "type": "bytes3"
            },
            {
              "internalType": "uint256",
              "name": "size",
              "type": "uint256"
            },
            {
              "internalType": "uint256",
              "name": "downloads",
              "type": "uint256"
            },
            {
              "internalType": "address",
              "name": "uploader",
              "type": "address"
            },
            {
              "internalType": "bytes32",
              "name": "date",
              "type": "bytes32"
            }
          ],
          "internalType": "struct Adoption.File[]",
          "name": "",
          "type": "tuple[]"
        }
      ],
      "payable": false,
      "stateMutability": "nonpayable",
      "type": "function"
    },
    {
      "constant": false,
      "inputs": [
        {
          "internalType": "uint256",
          "name": "petId",
          "type": "uint256"
        }
      ],
      "name": "adopt",
      "outputs": [
        {
          "internalType": "uint256",
          "name": "",
          "type": "uint256"
        }
      ],
      "payable": false,
      "stateMutability": "nonpayable",
      "type": "function"
    },
    {
      "constant": true,
      "inputs": [],
      "name": "getAdopters",
      "outputs": [
        {
          "internalType": "address[16]",
          "name": "",
          "type": "address[16]"
        }
      ],
      "payable": false,
      "stateMutability": "view",
      "type": "function"
    }
  ],
  "bytecode": "0x6080604052600060015534801561001557600080fd5b50610b15806100256000396000f3fe608060405234801561001057600080fd5b50600436106100625760003560e01c806312506f4d146100675780633de4eb171461009757806343ae80d3146100b55780638588b2c5146100e557806387b9c24d14610115578063f4c714b414610145575b600080fd5b610081600480360361007c9190810190610677565b61017a565b60405161008e919061092a565b60405180910390f35b61009f6102b0565b6040516100ac919061090e565b60405180910390f35b6100cf60048036036100ca9190810190610677565b610331565b6040516100dc91906108f3565b60405180910390f35b6100ff60048036036100fa9190810190610677565b610364565b60405161010c91906109c8565b60405180910390f35b61012f600480360361012a9190810190610677565b6103d5565b60405161013c91906109ad565b60405180910390f35b61015f600480360361015a9190810190610677565b610557565b6040516101719695949392919061094c565b60405180910390f35b60606000805480602002602001604051908101604052809291908181526020016000905b828210156102a557838290600052602060002090600602016040518060c0016040529081600082015481526020016001820160009054906101000a900460e81b7cffffffffffffffffffffffffffffffffffffffffffffffffffffffffff19167cffffffffffffffffffffffffffffffffffffffffffffffffffffffffff1916815260200160028201548152602001600382015481526020016004820160009054906101000a900473ffffffffffffffffffffffffffffffffffffffff1673ffffffffffffffffffffffffffffffffffffffff1673ffffffffffffffffffffffffffffffffffffffff1681526020016005820154815250508152602001906001019061019e565b505050509050919050565b6102b86105cd565b6002601080602002604051908101604052809291908260108015610327576020028201915b8160009054906101000a900473ffffffffffffffffffffffffffffffffffffffff1673ffffffffffffffffffffffffffffffffffffffff16815260200190600101908083116102dd575b5050505050905090565b6002816010811061033e57fe5b016000915054906101000a900473ffffffffffffffffffffffffffffffffffffffff1681565b60008082101580156103775750600f8211155b61038057600080fd5b336002836010811061038e57fe5b0160006101000a81548173ffffffffffffffffffffffffffffffffffffffff021916908373ffffffffffffffffffffffffffffffffffffffff160217905550819050919050565b6103dd6105f0565b600082101580156103ef575060015482105b6103f857600080fd5b336000838154811061040657fe5b906000526020600020906006020160040160006101000a81548173ffffffffffffffffffffffffffffffffffffffff021916908373ffffffffffffffffffffffffffffffffffffffff1602179055506000828154811061046257fe5b90600052602060002090600602016040518060c0016040529081600082015481526020016001820160009054906101000a900460e81b7cffffffffffffffffffffffffffffffffffffffffffffffffffffffffff19167cffffffffffffffffffffffffffffffffffffffffffffffffffffffffff1916815260200160028201548152602001600382015481526020016004820160009054906101000a900473ffffffffffffffffffffffffffffffffffffffff1673ffffffffffffffffffffffffffffffffffffffff1673ffffffffffffffffffffffffffffffffffffffff1681526020016005820154815250509050919050565b6000818154811061056457fe5b90600052602060002090600602016000915090508060000154908060010160009054906101000a900460e81b908060020154908060030154908060040160009054906101000a900473ffffffffffffffffffffffffffffffffffffffff16908060050154905086565b604051806102000160405280601090602082028038833980820191505090505090565b6040518060c001604052806000801916815260200160007cffffffffffffffffffffffffffffffffffffffffffffffffffffffffff191681526020016000815260200160008152602001600073ffffffffffffffffffffffffffffffffffffffff168152602001600080191681525090565b60008135905061067181610abb565b92915050565b60006020828403121561068957600080fd5b600061069784828501610662565b91505092915050565b60006106ac83836106d0565b60208301905092915050565b60006106c4838361085a565b60c08301905092915050565b6106d981610a49565b82525050565b6106e881610a49565b82525050565b6106f7816109fd565b6107018184610a2d565b925061070c826109e3565b8060005b8381101561073d57815161072487826106a0565b965061072f83610a13565b925050600181019050610710565b505050505050565b600061075082610a08565b61075a8185610a38565b9350610765836109ed565b8060005b8381101561079657815161077d88826106b8565b975061078883610a20565b925050600181019050610769565b5085935050505092915050565b6107ac81610a87565b82525050565b6107bb81610a87565b82525050565b6107ca81610a5b565b82525050565b6107d981610a5b565b82525050565b60c0820160008201516107f560008501826107a3565b50602082015161080860208501826107c1565b50604082015161081b60408501826108d5565b50606082015161082e60608501826108d5565b50608082015161084160808501826106d0565b5060a082015161085460a08501826107a3565b50505050565b60c08201600082015161087060008501826107a3565b50602082015161088360208501826107c1565b50604082015161089660408501826108d5565b5060608201516108a960608501826108d5565b5060808201516108bc60808501826106d0565b5060a08201516108cf60a08501826107a3565b50505050565b6108de81610ab1565b82525050565b6108ed81610ab1565b82525050565b600060208201905061090860008301846106df565b92915050565b60006102008201905061092460008301846106ee565b92915050565b600060208201905081810360008301526109448184610745565b905092915050565b600060c08201905061096160008301896107b2565b61096e60208301886107d0565b61097b60408301876108e4565b61098860608301866108e4565b61099560808301856106df565b6109a260a08301846107b2565b979650505050505050565b600060c0820190506109c260008301846107df565b92915050565b60006020820190506109dd60008301846108e4565b92915050565b6000819050919050565b6000819050602082019050919050565b600060109050919050565b600081519050919050565b6000602082019050919050565b6000602082019050919050565b600081905092915050565b600082825260208201905092915050565b6000610a5482610a91565b9050919050565b60007fffffff000000000000000000000000000000000000000000000000000000000082169050919050565b6000819050919050565b600073ffffffffffffffffffffffffffffffffffffffff82169050919050565b6000819050919050565b610ac481610ab1565b8114610acf57600080fd5b5056fea365627a7a723158208971875c925c01792d8facd7d01dd6bbb7275db981e03226890eb3387300d9416c6578706572696d656e74616cf564736f6c634300050c0040",
  "source": "pragma solidity ^0.5.0;\r\npragma experimental ABIEncoderV2;   //Esperimental es necesario para \"File memory\" (?)\r\n\r\ncontract Adoption {\r\n\r\n    struct File {\r\n        bytes32 name;       //Nombre\r\n        bytes3 ext;         //Extensión\r\n        uint size;          //Tamaño\r\n        uint downloads;     //Número de descargas\r\n        address uploader;   //Propietario\r\n        bytes32 date; //El tipo no se si es correcto    //Fecha de subida\r\n    }\r\n\r\n    File[] public files;\r\n    uint size = 0;\r\n\r\n    // Devuelve la información del archivo que se va a descargar\r\n    function download(uint fileId) public returns (File memory)\r\n    {\r\n        require(fileId >= 0 && fileId < size);\r\n\r\n        files[fileId].uploader = msg.sender;\r\n\r\n        return files[fileId];\r\n    }\r\n\r\n    // Devuelve la información de todos los archivos\r\n    function getFiles(uint fileId) public returns (File[] memory)\r\n    {\r\n        return files;\r\n    }\r\n\r\n\r\n\r\n\r\n\r\n\r\n\r\n    //////////////////////////////////////////////////////////////////////\r\n    address[16] public adopters;\r\n\r\n    // Adopting a pet\r\n    function adopt(uint petId) public returns (uint) {\r\n        require(petId >= 0 && petId <= 15);\r\n\r\n        adopters[petId] = msg.sender;\r\n\r\n        return petId;\r\n    }\r\n    // Retrieving the adopters\r\n\r\n    function getAdopters() public view returns (address[16] memory) {\r\n        return adopters;\r\n    }\r\n}",
  "sourcePath": "C:/trabajossi/trabajossi/contracts/Adoption.sol",
  "compiler": {
    "name": "solc",
    "version": "0.5.12+commit.7709ece9.Emscripten.clang"
  },
  "schemaVersion": "3.0.20",
  "updatedAt": "2020-01-07T19:12:27.619Z",
  "networkType": "ethereum",
  "devdoc": {
    "methods": {}
  },
  "userdoc": {
    "methods": {}
  }
}