{
  "contractName": "Adoption",
  "abi": [
    {
      "constant": true,
      "inputs": [
        {
          "internalType": "uint256",
          "name": "",
          "type": "uint256"
        }
      ],
      "name": "adopters",
      "outputs": [
        {
          "internalType": "address",
          "name": "",
          "type": "address"
        }
      ],
      "payable": false,
      "stateMutability": "view",
      "type": "function"
    },
    {
      "constant": true,
      "inputs": [
        {
          "internalType": "uint256",
          "name": "",
          "type": "uint256"
        }
      ],
      "name": "files",
      "outputs": [
        {
          "internalType": "bytes32",
          "name": "name",
          "type": "bytes32"
        },
        {
          "internalType": "bytes3",
          "name": "ext",
          "type": "bytes3"
        },
        {
          "internalType": "uint256",
          "name": "size",
          "type": "uint256"
        },
        {
          "internalType": "uint256",
          "name": "downloads",
          "type": "uint256"
        },
        {
          "internalType": "address",
          "name": "uploader",
          "type": "address"
        },
        {
          "internalType": "uint256",
          "name": "date",
          "type": "uint256"
        }
      ],
      "payable": false,
      "stateMutability": "view",
      "type": "function"
    },
    {
      "constant": false,
      "inputs": [
        {
          "internalType": "uint256",
          "name": "fileId",
          "type": "uint256"
        }
      ],
      "name": "download",
      "outputs": [
        {
          "components": [
            {
              "internalType": "bytes32",
              "name": "name",
              "type": "bytes32"
            },
            {
              "internalType": "bytes3",
              "name": "ext",
              "type": "bytes3"
            },
            {
              "internalType": "uint256",
              "name": "size",
              "type": "uint256"
            },
            {
              "internalType": "uint256",
              "name": "downloads",
              "type": "uint256"
            },
            {
              "internalType": "address",
              "name": "uploader",
              "type": "address"
            },
            {
              "internalType": "uint256",
              "name": "date",
              "type": "uint256"
            }
          ],
          "internalType": "struct Adoption.File",
          "name": "",
          "type": "tuple"
        }
      ],
      "payable": false,
      "stateMutability": "nonpayable",
      "type": "function"
    },
    {
      "constant": false,
      "inputs": [
        {
          "internalType": "bytes32",
          "name": "name",
          "type": "bytes32"
        },
        {
          "internalType": "bytes3",
          "name": "ext",
          "type": "bytes3"
        },
        {
          "internalType": "uint256",
          "name": "size",
          "type": "uint256"
        }
      ],
      "name": "upload",
      "outputs": [],
      "payable": false,
      "stateMutability": "nonpayable",
      "type": "function"
    },
    {
      "constant": false,
      "inputs": [],
      "name": "getFiles",
      "outputs": [
        {
          "components": [
            {
              "internalType": "bytes32",
              "name": "name",
              "type": "bytes32"
            },
            {
              "internalType": "bytes3",
              "name": "ext",
              "type": "bytes3"
            },
            {
              "internalType": "uint256",
              "name": "size",
              "type": "uint256"
            },
            {
              "internalType": "uint256",
              "name": "downloads",
              "type": "uint256"
            },
            {
              "internalType": "address",
              "name": "uploader",
              "type": "address"
            },
            {
              "internalType": "uint256",
              "name": "date",
              "type": "uint256"
            }
          ],
          "internalType": "struct Adoption.File[]",
          "name": "",
          "type": "tuple[]"
        }
      ],
      "payable": false,
      "stateMutability": "nonpayable",
      "type": "function"
    },
    {
      "constant": false,
      "inputs": [
        {
          "internalType": "uint256",
          "name": "petId",
          "type": "uint256"
        }
      ],
      "name": "adopt",
      "outputs": [
        {
          "internalType": "uint256",
          "name": "",
          "type": "uint256"
        }
      ],
      "payable": false,
      "stateMutability": "nonpayable",
      "type": "function"
    },
    {
      "constant": true,
      "inputs": [],
      "name": "getAdopters",
      "outputs": [
        {
          "internalType": "address[16]",
          "name": "",
          "type": "address[16]"
        }
      ],
      "payable": false,
      "stateMutability": "view",
      "type": "function"
    }
  ],
  "bytecode": "0x608060405234801561001057600080fd5b50610c82806100206000396000f3fe608060405234801561001057600080fd5b506004361061007d5760003560e01c8063788717f71161005b578063788717f7146100ee5780638588b2c51461010a57806387b9c24d1461013a578063f4c714b41461016a5761007d565b80632da96d73146100825780633de4eb17146100a057806343ae80d3146100be575b600080fd5b61008a61019f565b6040516100979190610a38565b60405180910390f35b6100a86102d3565b6040516100b59190610a1c565b60405180910390f35b6100d860048036036100d3919081019061071f565b610354565b6040516100e59190610a01565b60405180910390f35b610108600480360361010391908101906106d0565b610387565b005b610124600480360361011f919081019061071f565b61038c565b6040516101319190610af6565b60405180910390f35b610154600480360361014f919081019061071f565b6103fd565b6040516101619190610adb565b60405180910390f35b610184600480360361017f919081019061071f565b610589565b60405161019696959493929190610a5a565b60405180910390f35b60606000805480602002602001604051908101604052809291908181526020016000905b828210156102ca57838290600052602060002090600602016040518060c0016040529081600082015481526020016001820160009054906101000a900460e81b7cffffffffffffffffffffffffffffffffffffffffffffffffffffffffff19167cffffffffffffffffffffffffffffffffffffffffffffffffffffffffff1916815260200160028201548152602001600382015481526020016004820160009054906101000a900473ffffffffffffffffffffffffffffffffffffffff1673ffffffffffffffffffffffffffffffffffffffff1673ffffffffffffffffffffffffffffffffffffffff168152602001600582015481525050815260200190600101906101c3565b50505050905090565b6102db6105ff565b600160108060200260405190810160405280929190826010801561034a576020028201915b8160009054906101000a900473ffffffffffffffffffffffffffffffffffffffff1673ffffffffffffffffffffffffffffffffffffffff1681526020019060010190808311610300575b5050505050905090565b6001816010811061036157fe5b016000915054906101000a900473ffffffffffffffffffffffffffffffffffffffff1681565b505050565b600080821015801561039f5750600f8211155b6103a857600080fd5b33600183601081106103b657fe5b0160006101000a81548173ffffffffffffffffffffffffffffffffffffffff021916908373ffffffffffffffffffffffffffffffffffffffff160217905550819050919050565b610405610622565b6000821015801561041a575060008054905082105b610459576040517f08c379a000000000000000000000000000000000000000000000000000000000815260040161045090610abb565b60405180910390fd5b6000828154811061046657fe5b9060005260206000209060060201600301600081548092919060010191905055506000828154811061049457fe5b90600052602060002090600602016040518060c0016040529081600082015481526020016001820160009054906101000a900460e81b7cffffffffffffffffffffffffffffffffffffffffffffffffffffffffff19167cffffffffffffffffffffffffffffffffffffffffffffffffffffffffff1916815260200160028201548152602001600382015481526020016004820160009054906101000a900473ffffffffffffffffffffffffffffffffffffffff1673ffffffffffffffffffffffffffffffffffffffff1673ffffffffffffffffffffffffffffffffffffffff1681526020016005820154815250509050919050565b6000818154811061059657fe5b90600052602060002090600602016000915090508060000154908060010160009054906101000a900460e81b908060020154908060030154908060040160009054906101000a900473ffffffffffffffffffffffffffffffffffffffff16908060050154905086565b604051806102000160405280601090602082028038833980820191505090505090565b6040518060c001604052806000801916815260200160007cffffffffffffffffffffffffffffffffffffffffffffffffffffffffff191681526020016000815260200160008152602001600073ffffffffffffffffffffffffffffffffffffffff168152602001600081525090565b6000813590506106a081610bfa565b92915050565b6000813590506106b581610c11565b92915050565b6000813590506106ca81610c28565b92915050565b6000806000606084860312156106e557600080fd5b60006106f3868287016106a6565b935050602061070486828701610691565b9250506040610715868287016106bb565b9150509250925092565b60006020828403121561073157600080fd5b600061073f848285016106bb565b91505092915050565b60006107548383610778565b60208301905092915050565b600061076c8383610968565b60c08301905092915050565b61078181610b88565b82525050565b61079081610b88565b82525050565b61079f81610b2b565b6107a98184610b5b565b92506107b482610b11565b8060005b838110156107e55781516107cc8782610748565b96506107d783610b41565b9250506001810190506107b8565b505050505050565b60006107f882610b36565b6108028185610b66565b935061080d83610b1b565b8060005b8381101561083e5781516108258882610760565b975061083083610b4e565b925050600181019050610811565b5085935050505092915050565b61085481610bc6565b82525050565b61086381610bc6565b82525050565b61087281610b9a565b82525050565b61088181610b9a565b82525050565b6000610894602d83610b77565b91507f4572726f7220656e20656c20c3ad6e6469636520616c2061636365646572206160008301527f206c6f73206172636869766f73000000000000000000000000000000000000006020830152604082019050919050565b60c082016000820151610903600085018261084b565b5060208201516109166020850182610869565b50604082015161092960408501826109e3565b50606082015161093c60608501826109e3565b50608082015161094f6080850182610778565b5060a082015161096260a08501826109e3565b50505050565b60c08201600082015161097e600085018261084b565b5060208201516109916020850182610869565b5060408201516109a460408501826109e3565b5060608201516109b760608501826109e3565b5060808201516109ca6080850182610778565b5060a08201516109dd60a08501826109e3565b50505050565b6109ec81610bf0565b82525050565b6109fb81610bf0565b82525050565b6000602082019050610a166000830184610787565b92915050565b600061020082019050610a326000830184610796565b92915050565b60006020820190508181036000830152610a5281846107ed565b905092915050565b600060c082019050610a6f600083018961085a565b610a7c6020830188610878565b610a8960408301876109f2565b610a9660608301866109f2565b610aa36080830185610787565b610ab060a08301846109f2565b979650505050505050565b60006020820190508181036000830152610ad481610887565b9050919050565b600060c082019050610af060008301846108ed565b92915050565b6000602082019050610b0b60008301846109f2565b92915050565b6000819050919050565b6000819050602082019050919050565b600060109050919050565b600081519050919050565b6000602082019050919050565b6000602082019050919050565b600081905092915050565b600082825260208201905092915050565b600082825260208201905092915050565b6000610b9382610bd0565b9050919050565b60007fffffff000000000000000000000000000000000000000000000000000000000082169050919050565b6000819050919050565b600073ffffffffffffffffffffffffffffffffffffffff82169050919050565b6000819050919050565b610c0381610b9a565b8114610c0e57600080fd5b50565b610c1a81610bc6565b8114610c2557600080fd5b50565b610c3181610bf0565b8114610c3c57600080fd5b5056fea365627a7a72315820f1262772eb45adbd803b002ef6467c5b609915c0ad788d4d8c8cca7bd03950ba6c6578706572696d656e74616cf564736f6c634300050c0040",
  "source": "pragma solidity ^0.5.0;\r\npragma experimental ABIEncoderV2;   //Esperimental es necesario para \"File memory\" (?)\r\n\r\n\r\n/*\r\nARRAYS\r\nlength\r\npush() devuelve el elemento del final\r\npush(x) inserta x al final\r\npop() elimina el elemento del final\r\n*/\r\n\r\ncontract Adoption {\r\n\r\n    struct File {\r\n        bytes32 name;       //Nombre\r\n        bytes3 ext;         //Extensión\r\n        uint size;          //Tamaño\r\n        uint downloads;     //Número de descargas\r\n        address uploader;   //Propietario\r\n        uint date; //El tipo no se si es correcto    //Fecha de subida\r\n    }\r\n\r\n    File[] public files;\r\n    //mapping(File => address) private uploaders;\r\n\r\n    // Devuelve la información del archivo que se va a descargar\r\n    function download(uint fileId) public returns (File memory)\r\n    {\r\n        require(fileId >= 0 && fileId < files.length, \"Error en el índice al acceder a los archivos\");\r\n\r\n        files[fileId].downloads++;\r\n\r\n        return files[fileId];\r\n    }\r\n\r\n    // Devuelve la información del archivo que se va a descargar\r\n    function upload(bytes32 name, bytes3 ext, uint size) public\r\n    {\r\n        //File newFile = new File(name, ext, size, 0, msg.sender, now);\r\n        //files.push(newFile);\r\n    }\r\n\r\n    // Devuelve la información de todos los archivos\r\n    function getFiles() public returns (File[] memory)\r\n    {\r\n        return files;\r\n    }\r\n\r\n\r\n\r\n\r\n\r\n\r\n\r\n    //////////////////////////////////////////////////////////////////////\r\n    address[16] public adopters;\r\n\r\n    // Adopting a pet\r\n    function adopt(uint petId) public returns (uint) {\r\n        require(petId >= 0 && petId <= 15);\r\n\r\n        adopters[petId] = msg.sender;\r\n\r\n        return petId;\r\n    }\r\n    // Retrieving the adopters\r\n\r\n    function getAdopters() public view returns (address[16] memory) {\r\n        return adopters;\r\n    }\r\n}",
  "sourcePath": "C:/truffle/ssi/trabajossi/contracts/Adoption.sol",
  "compiler": {
    "name": "solc",
    "version": "0.5.12+commit.7709ece9.Emscripten.clang"
  },
  "schemaVersion": "3.0.19",
  "updatedAt": "2020-01-08T18:29:52.854Z",
  "networkType": "ethereum",
  "devdoc": {
    "methods": {}
  },
  "userdoc": {
    "methods": {}
  }
}