{
  "contractName": "Download",
  "abi": [
    {
      "constant": true,
      "inputs": [
        {
          "internalType": "uint256",
          "name": "",
          "type": "uint256"
        }
      ],
      "name": "files",
      "outputs": [
        {
          "internalType": "bytes32",
          "name": "name",
          "type": "bytes32"
        },
        {
          "internalType": "bytes3",
          "name": "ext",
          "type": "bytes3"
        },
        {
          "internalType": "uint256",
          "name": "size",
          "type": "uint256"
        },
        {
          "internalType": "uint256",
          "name": "downloads",
          "type": "uint256"
        },
        {
          "internalType": "address",
          "name": "uploader",
          "type": "address"
        },
        {
          "internalType": "bytes32",
          "name": "source",
          "type": "bytes32"
        },
        {
          "internalType": "uint256",
          "name": "date",
          "type": "uint256"
        }
      ],
      "payable": false,
      "stateMutability": "view",
      "type": "function"
    },
    {
      "constant": false,
      "inputs": [
        {
          "internalType": "uint256",
          "name": "fileId",
          "type": "uint256"
        }
      ],
      "name": "download",
      "outputs": [
        {
          "components": [
            {
              "internalType": "bytes32",
              "name": "name",
              "type": "bytes32"
            },
            {
              "internalType": "bytes3",
              "name": "ext",
              "type": "bytes3"
            },
            {
              "internalType": "uint256",
              "name": "size",
              "type": "uint256"
            },
            {
              "internalType": "uint256",
              "name": "downloads",
              "type": "uint256"
            },
            {
              "internalType": "address",
              "name": "uploader",
              "type": "address"
            },
            {
              "internalType": "bytes32",
              "name": "source",
              "type": "bytes32"
            },
            {
              "internalType": "uint256",
              "name": "date",
              "type": "uint256"
            }
          ],
          "internalType": "struct Download.File",
          "name": "",
          "type": "tuple"
        }
      ],
      "payable": false,
      "stateMutability": "nonpayable",
      "type": "function"
    },
    {
      "constant": false,
      "inputs": [
        {
          "internalType": "bytes32",
          "name": "name",
          "type": "bytes32"
        },
        {
          "internalType": "bytes3",
          "name": "ext",
          "type": "bytes3"
        },
        {
          "internalType": "uint256",
          "name": "size",
          "type": "uint256"
        }
      ],
      "name": "upload",
      "outputs": [],
      "payable": false,
      "stateMutability": "nonpayable",
      "type": "function"
    },
    {
      "constant": false,
      "inputs": [],
      "name": "getFiles",
      "outputs": [
        {
          "components": [
            {
              "internalType": "bytes32",
              "name": "name",
              "type": "bytes32"
            },
            {
              "internalType": "bytes3",
              "name": "ext",
              "type": "bytes3"
            },
            {
              "internalType": "uint256",
              "name": "size",
              "type": "uint256"
            },
            {
              "internalType": "uint256",
              "name": "downloads",
              "type": "uint256"
            },
            {
              "internalType": "address",
              "name": "uploader",
              "type": "address"
            },
            {
              "internalType": "bytes32",
              "name": "source",
              "type": "bytes32"
            },
            {
              "internalType": "uint256",
              "name": "date",
              "type": "uint256"
            }
          ],
          "internalType": "struct Download.File[]",
          "name": "",
          "type": "tuple[]"
        }
      ],
      "payable": false,
      "stateMutability": "nonpayable",
      "type": "function"
    },
    {
      "constant": false,
      "inputs": [
        {
          "components": [
            {
              "internalType": "bytes32",
              "name": "name",
              "type": "bytes32"
            },
            {
              "internalType": "bytes3",
              "name": "ext",
              "type": "bytes3"
            },
            {
              "internalType": "uint256",
              "name": "size",
              "type": "uint256"
            },
            {
              "internalType": "uint256",
              "name": "downloads",
              "type": "uint256"
            },
            {
              "internalType": "address",
              "name": "uploader",
              "type": "address"
            },
            {
              "internalType": "bytes32",
              "name": "source",
              "type": "bytes32"
            },
            {
              "internalType": "uint256",
              "name": "date",
              "type": "uint256"
            }
          ],
          "internalType": "struct Download.File[]",
          "name": "newFiles",
          "type": "tuple[]"
        }
      ],
      "name": "setFiles",
      "outputs": [],
      "payable": false,
      "stateMutability": "nonpayable",
      "type": "function"
    }
  ],
  "bytecode": "0x608060405234801561001057600080fd5b50610e20806100206000396000f3fe608060405234801561001057600080fd5b50600436106100575760003560e01c80632da96d731461005c578063788717f71461007a57806387b9c24d14610096578063ddc8288f146100c6578063f4c714b4146100e2575b600080fd5b610064610118565b6040516100719190610ba4565b60405180910390f35b610094600480360361008f91908101906108bc565b610256565b005b6100b060048036036100ab919081019061090b565b61025b565b6040516100bd9190610c55565b60405180910390f35b6100e060048036036100db919081019061087b565b6103f1565b005b6100fc60048036036100f7919081019061090b565b6105ff565b60405161010f9796959493929190610bc6565b60405180910390f35b60606000805480602002602001604051908101604052809291908181526020016000905b8282101561024d57838290600052602060002090600702016040518060e0016040529081600082015481526020016001820160009054906101000a900460e81b7cffffffffffffffffffffffffffffffffffffffffffffffffffffffffff19167cffffffffffffffffffffffffffffffffffffffffffffffffffffffffff1916815260200160028201548152602001600382015481526020016004820160009054906101000a900473ffffffffffffffffffffffffffffffffffffffff1673ffffffffffffffffffffffffffffffffffffffff1673ffffffffffffffffffffffffffffffffffffffff168152602001600582015481526020016006820154815250508152602001906001019061013c565b50505050905090565b505050565b61026361067b565b60008210158015610278575060008054905082105b6102b7576040517f08c379a00000000000000000000000000000000000000000000000000000000081526004016102ae90610c35565b60405180910390fd5b600082815481106102c457fe5b906000526020600020906007020160030160008154809291906001019190505550600082815481106102f257fe5b90600052602060002090600702016040518060e0016040529081600082015481526020016001820160009054906101000a900460e81b7cffffffffffffffffffffffffffffffffffffffffffffffffffffffffff19167cffffffffffffffffffffffffffffffffffffffffffffffffffffffffff1916815260200160028201548152602001600382015481526020016004820160009054906101000a900473ffffffffffffffffffffffffffffffffffffffff1673ffffffffffffffffffffffffffffffffffffffff1673ffffffffffffffffffffffffffffffffffffffff168152602001600582015481526020016006820154815250509050919050565b6000809050600090505b6000805490508110156105fb5781818151811061041457fe5b6020026020010151600001516000828154811061042d57fe5b90600052602060002090600702016000018190555081818151811061044e57fe5b6020026020010151602001516000828154811061046757fe5b906000526020600020906007020160010160006101000a81548162ffffff021916908360e81c021790555081818151811061049e57fe5b602002602001015160400151600082815481106104b757fe5b9060005260206000209060070201600201819055508181815181106104d857fe5b602002602001015160600151600082815481106104f157fe5b90600052602060002090600702016003018190555081818151811061051257fe5b6020026020010151608001516000828154811061052b57fe5b906000526020600020906007020160040160006101000a81548173ffffffffffffffffffffffffffffffffffffffff021916908373ffffffffffffffffffffffffffffffffffffffff16021790555081818151811061058657fe5b602002602001015160a001516000828154811061059f57fe5b9060005260206000209060070201600501819055508181815181106105c057fe5b602002602001015160c00151600082815481106105d957fe5b90600052602060002090600702016006018190555080806001019150506103fb565b5050565b6000818154811061060c57fe5b90600052602060002090600702016000915090508060000154908060010160009054906101000a900460e81b908060020154908060030154908060040160009054906101000a900473ffffffffffffffffffffffffffffffffffffffff16908060050154908060060154905087565b6040518060e001604052806000801916815260200160007cffffffffffffffffffffffffffffffffffffffffffffffffffffffffff191681526020016000815260200160008152602001600073ffffffffffffffffffffffffffffffffffffffff16815260200160008019168152602001600081525090565b60008135905061070381610d81565b92915050565b600082601f83011261071a57600080fd5b813561072d61072882610c9d565b610c70565b915081818352602084019350602081019050838560e084028201111561075257600080fd5b60005b83811015610782578161076888826107b6565b845260208401935060e08301925050600181019050610755565b5050505092915050565b60008135905061079b81610d98565b92915050565b6000813590506107b081610daf565b92915050565b600060e082840312156107c857600080fd5b6107d260e0610c70565b905060006107e2848285016107a1565b60008301525060206107f68482850161078c565b602083015250604061080a84828501610866565b604083015250606061081e84828501610866565b6060830152506080610832848285016106f4565b60808301525060a0610846848285016107a1565b60a08301525060c061085a84828501610866565b60c08301525092915050565b60008135905061087581610dc6565b92915050565b60006020828403121561088d57600080fd5b600082013567ffffffffffffffff8111156108a757600080fd5b6108b384828501610709565b91505092915050565b6000806000606084860312156108d157600080fd5b60006108df868287016107a1565b93505060206108f08682870161078c565b925050604061090186828701610866565b9150509250925092565b60006020828403121561091d57600080fd5b600061092b84828501610866565b91505092915050565b60006109408383610af8565b60e08301905092915050565b61095581610d0f565b82525050565b61096481610d0f565b82525050565b600061097582610cd5565b61097f8185610ced565b935061098a83610cc5565b8060005b838110156109bb5781516109a28882610934565b97506109ad83610ce0565b92505060018101905061098e565b5085935050505092915050565b6109d181610d4d565b82525050565b6109e081610d4d565b82525050565b6109ef81610d21565b82525050565b6109fe81610d21565b82525050565b6000610a11602d83610cfe565b91507f4572726f7220656e20656c20c3ad6e6469636520616c2061636365646572206160008301527f206c6f73206172636869766f73000000000000000000000000000000000000006020830152604082019050919050565b60e082016000820151610a8060008501826109c8565b506020820151610a9360208501826109e6565b506040820151610aa66040850182610b86565b506060820151610ab96060850182610b86565b506080820151610acc608085018261094c565b5060a0820151610adf60a08501826109c8565b5060c0820151610af260c0850182610b86565b50505050565b60e082016000820151610b0e60008501826109c8565b506020820151610b2160208501826109e6565b506040820151610b346040850182610b86565b506060820151610b476060850182610b86565b506080820151610b5a608085018261094c565b5060a0820151610b6d60a08501826109c8565b5060c0820151610b8060c0850182610b86565b50505050565b610b8f81610d77565b82525050565b610b9e81610d77565b82525050565b60006020820190508181036000830152610bbe818461096a565b905092915050565b600060e082019050610bdb600083018a6109d7565b610be860208301896109f5565b610bf56040830188610b95565b610c026060830187610b95565b610c0f608083018661095b565b610c1c60a08301856109d7565b610c2960c0830184610b95565b98975050505050505050565b60006020820190508181036000830152610c4e81610a04565b9050919050565b600060e082019050610c6a6000830184610a6a565b92915050565b6000604051905081810181811067ffffffffffffffff82111715610c9357600080fd5b8060405250919050565b600067ffffffffffffffff821115610cb457600080fd5b602082029050602081019050919050565b6000819050602082019050919050565b600081519050919050565b6000602082019050919050565b600082825260208201905092915050565b600082825260208201905092915050565b6000610d1a82610d57565b9050919050565b60007fffffff000000000000000000000000000000000000000000000000000000000082169050919050565b6000819050919050565b600073ffffffffffffffffffffffffffffffffffffffff82169050919050565b6000819050919050565b610d8a81610d0f565b8114610d9557600080fd5b50565b610da181610d21565b8114610dac57600080fd5b50565b610db881610d4d565b8114610dc357600080fd5b50565b610dcf81610d77565b8114610dda57600080fd5b5056fea365627a7a72315820e44d9c08863cae07475256596e7a1a4a14f530f15a8baa372d5b1cf81a29a0c96c6578706572696d656e74616cf564736f6c634300050c0040",
  "source": "pragma solidity ^0.5.0;\r\npragma experimental ABIEncoderV2;   //Esperimental es necesario para \"File memory\" (?)\r\n\r\n/*\r\nARRAYS\r\nlength\r\npush() devuelve el elemento del final\r\npush(x) inserta x al final\r\npop() elimina el elemento del final\r\n*/\r\n\r\ncontract Download {\r\n\r\n    struct File {\r\n        bytes32 name;       //Nombre\r\n        bytes3 ext;         //Extensión\r\n        uint size;          //Tamaño\r\n        uint downloads;     //Número de descargas\r\n        address uploader;   //Propietario\r\n        bytes32 source;     //donde se guarda\r\n        uint date; //El tipo no se si es correcto    //Fecha de subida\r\n    }\r\n\r\n    File[] public files;\r\n    //mapping(File => address) private uploaders;\r\n\r\n    // Devuelve la información del archivo que se va a descargar\r\n    function download(uint fileId) public returns (File memory)\r\n    {\r\n        require(fileId >= 0 && fileId < files.length, \"Error en el índice al acceder a los archivos\");\r\n\r\n        files[fileId].downloads++;\r\n\r\n        return files[fileId];\r\n    }\r\n\r\n    // Devuelve la información del archivo que se va a descargar\r\n    function upload(bytes32 name, bytes3 ext, uint size) public\r\n    {\r\n        //File newFile = new File(name, ext, size, 0, msg.sender, now);\r\n        //files.push(newFile);\r\n    }\r\n\r\n    // Devuelve la información de todos los archivos\r\n    function getFiles() public returns (File[] memory)\r\n    {\r\n        return files;\r\n    }\r\n    \r\n    function setFiles(File[] memory newFiles) public\r\n    {\r\n        uint i = 0;\r\n        for (i = 0; i < files.length; i++) {\r\n            files[i].name = newFiles[i].name;\r\n            files[i].ext = newFiles[i].ext;\r\n            files[i].size = newFiles[i].size;\r\n            files[i].downloads = newFiles[i].downloads;\r\n            files[i].uploader = newFiles[i].uploader;\r\n            files[i].source = newFiles[i].source;\r\n            files[i].date = newFiles[i].date;\r\n        }\r\n    }\r\n/*\r\n    function plusDownLD(uint fileId) private {\r\n        files[fileId].downloads ++;\r\n    }\r\n\r\n    function downLd(uint fileId) public returns (uint) {\r\n        require(fileId >= 0 && fileId < size);\r\n        plusDownLD(fileId);\r\n        return fileId;\r\n    }\r\n    */\r\n}",
  "sourcePath": "C:/truffle/ssi/trabajossi/contracts/Download.sol",
  "compiler": {
    "name": "solc",
    "version": "0.5.12+commit.7709ece9.Emscripten.clang"
  },
  "schemaVersion": "3.0.19",
  "updatedAt": "2020-01-10T15:09:01.521Z",
  "devdoc": {
    "methods": {}
  },
  "userdoc": {
    "methods": {}
  }
}