{
  "contractName": "Download",
  "abi": [
    {
      "constant": true,
      "inputs": [
        {
          "internalType": "uint256",
          "name": "",
          "type": "uint256"
        }
      ],
      "name": "files",
      "outputs": [
        {
          "internalType": "bytes32",
          "name": "name",
          "type": "bytes32"
        },
        {
          "internalType": "bytes3",
          "name": "ext",
          "type": "bytes3"
        },
        {
          "internalType": "uint256",
          "name": "size",
          "type": "uint256"
        },
        {
          "internalType": "uint256",
          "name": "downloads",
          "type": "uint256"
        },
        {
          "internalType": "address",
          "name": "uploader",
          "type": "address"
        },
        {
          "internalType": "bytes32",
          "name": "date",
          "type": "bytes32"
        }
      ],
      "payable": false,
      "stateMutability": "view",
      "type": "function"
    },
    {
      "constant": false,
      "inputs": [
        {
          "internalType": "uint256",
          "name": "fileId",
          "type": "uint256"
        }
      ],
      "name": "getFiles",
      "outputs": [
        {
          "components": [
            {
              "internalType": "bytes32",
              "name": "name",
              "type": "bytes32"
            },
            {
              "internalType": "bytes3",
              "name": "ext",
              "type": "bytes3"
            },
            {
              "internalType": "uint256",
              "name": "size",
              "type": "uint256"
            },
            {
              "internalType": "uint256",
              "name": "downloads",
              "type": "uint256"
            },
            {
              "internalType": "address",
              "name": "uploader",
              "type": "address"
            },
            {
              "internalType": "bytes32",
              "name": "date",
              "type": "bytes32"
            }
          ],
          "internalType": "struct Download.File[]",
          "name": "",
          "type": "tuple[]"
        }
      ],
      "payable": false,
      "stateMutability": "nonpayable",
      "type": "function"
    },
    {
      "constant": false,
      "inputs": [
        {
          "internalType": "uint256",
          "name": "fileId",
          "type": "uint256"
        }
      ],
      "name": "downLd",
      "outputs": [
        {
          "internalType": "uint256",
          "name": "",
          "type": "uint256"
        }
      ],
      "payable": false,
      "stateMutability": "nonpayable",
      "type": "function"
    }
  ],
  "bytecode": "0x6080604052600060015534801561001557600080fd5b5061062f806100256000396000f3fe608060405234801561001057600080fd5b50600436106100415760003560e01c806312506f4d14610046578063442b996e14610076578063f4c714b4146100a6575b600080fd5b610060600480360361005b91908101906102fa565b6100db565b60405161006d919061048c565b60405180910390f35b610090600480360361008b91908101906102fa565b610211565b60405161009d919061050f565b60405180910390f35b6100c060048036036100bb91908101906102fa565b61023e565b6040516100d2969594939291906104ae565b60405180910390f35b60606000805480602002602001604051908101604052809291908181526020016000905b8282101561020657838290600052602060002090600602016040518060c0016040529081600082015481526020016001820160009054906101000a900460e81b7cffffffffffffffffffffffffffffffffffffffffffffffffffffffffff19167cffffffffffffffffffffffffffffffffffffffffffffffffffffffffff1916815260200160028201548152602001600382015481526020016004820160009054906101000a900473ffffffffffffffffffffffffffffffffffffffff1673ffffffffffffffffffffffffffffffffffffffff1673ffffffffffffffffffffffffffffffffffffffff168152602001600582015481525050815260200190600101906100ff565b505050509050919050565b6000808210158015610224575060015482105b61022d57600080fd5b610236826102b4565b819050919050565b6000818154811061024b57fe5b90600052602060002090600602016000915090508060000154908060010160009054906101000a900460e81b908060020154908060030154908060040160009054906101000a900473ffffffffffffffffffffffffffffffffffffffff16908060050154905086565b600081815481106102c157fe5b90600052602060002090600602016003016000815480929190600101919050555050565b6000813590506102f4816105d5565b92915050565b60006020828403121561030c57600080fd5b600061031a848285016102e5565b91505092915050565b600061032f83836103f3565b60c08301905092915050565b61034481610563565b82525050565b61035381610563565b82525050565b60006103648261053a565b61036e8185610552565b93506103798361052a565b8060005b838110156103aa5781516103918882610323565b975061039c83610545565b92505060018101905061037d565b5085935050505092915050565b6103c0816105a1565b82525050565b6103cf816105a1565b82525050565b6103de81610575565b82525050565b6103ed81610575565b82525050565b60c08201600082015161040960008501826103b7565b50602082015161041c60208501826103d5565b50604082015161042f604085018261046e565b506060820151610442606085018261046e565b506080820151610455608085018261033b565b5060a082015161046860a08501826103b7565b50505050565b610477816105cb565b82525050565b610486816105cb565b82525050565b600060208201905081810360008301526104a68184610359565b905092915050565b600060c0820190506104c360008301896103c6565b6104d060208301886103e4565b6104dd604083018761047d565b6104ea606083018661047d565b6104f7608083018561034a565b61050460a08301846103c6565b979650505050505050565b6000602082019050610524600083018461047d565b92915050565b6000819050602082019050919050565b600081519050919050565b6000602082019050919050565b600082825260208201905092915050565b600061056e826105ab565b9050919050565b60007fffffff000000000000000000000000000000000000000000000000000000000082169050919050565b6000819050919050565b600073ffffffffffffffffffffffffffffffffffffffff82169050919050565b6000819050919050565b6105de816105cb565b81146105e957600080fd5b5056fea365627a7a7231582024ce2e18c62ede9cd30a50c48540ec7704683b59e0ac0ceb7a236627d926f33e6c6578706572696d656e74616cf564736f6c634300050c0040",
  "source": "pragma solidity ^0.5.0;\r\npragma experimental ABIEncoderV2;   //Esperimental es necesario para \"File memory\" (?)\r\n\r\ncontract Download {\r\n\r\n    struct File {\r\n        bytes32 name;       //Nombre\r\n        bytes3 ext;         //Extensión\r\n        uint size;          //Tamaño\r\n        uint downloads;     //Número de descargas\r\n        address uploader;   //Propietario\r\n        bytes32 date; //El tipo no se si es correcto    //Fecha de subida\r\n    }\r\n\r\n    File[] public files;\r\n    uint size = 0;\r\n\r\n    // Devuelve la información de todos los archivos\r\n    function getFiles(uint fileId) public returns (File[] memory)\r\n    {\r\n        return files;\r\n    }\r\n\r\n    function plusDownLD(uint fileId) private {\r\n        files[fileId].downloads ++;\r\n    }\r\n\r\n    function downLd(uint fileId) public returns (uint) {\r\n        require(fileId >= 0 && fileId < size);\r\n        plusDownLD(fileId);\r\n        return fileId;\r\n    }\r\n}",
  "sourcePath": "C:/truffle/ssi/trabajossi/contracts/Download.sol",
  "compiler": {
    "name": "solc",
    "version": "0.5.12+commit.7709ece9.Emscripten.clang"
  },
  "schemaVersion": "3.0.19",
  "updatedAt": "2020-01-09T11:00:15.742Z",
  "devdoc": {
    "methods": {}
  },
  "userdoc": {
    "methods": {}
  }
}